{
  "_format": "hh-sol-artifact-1",
  "contractName": "SPT3",
  "sourceName": "contracts/SPT3.sol",
  "abi": [
    {
      "inputs": [
        {
          "internalType": "string",
          "name": "uri",
          "type": "string"
        },
        {
          "internalType": "bytes32",
          "name": "merkleroot",
          "type": "bytes32"
        },
        {
          "internalType": "address",
          "name": "_proxyRegistryAddress",
          "type": "address"
        }
      ],
      "stateMutability": "nonpayable",
      "type": "constructor"
    },
    {
      "anonymous": false,
      "inputs": [
        {
          "indexed": true,
          "internalType": "address",
          "name": "owner",
          "type": "address"
        },
        {
          "indexed": true,
          "internalType": "address",
          "name": "approved",
          "type": "address"
        },
        {
          "indexed": true,
          "internalType": "uint256",
          "name": "tokenId",
          "type": "uint256"
        }
      ],
      "name": "Approval",
      "type": "event"
    },
    {
      "anonymous": false,
      "inputs": [
        {
          "indexed": true,
          "internalType": "address",
          "name": "owner",
          "type": "address"
        },
        {
          "indexed": true,
          "internalType": "address",
          "name": "operator",
          "type": "address"
        },
        {
          "indexed": false,
          "internalType": "bool",
          "name": "approved",
          "type": "bool"
        }
      ],
      "name": "ApprovalForAll",
      "type": "event"
    },
    {
      "anonymous": false,
      "inputs": [
        {
          "indexed": true,
          "internalType": "contract IERC20",
          "name": "token",
          "type": "address"
        },
        {
          "indexed": false,
          "internalType": "address",
          "name": "to",
          "type": "address"
        },
        {
          "indexed": false,
          "internalType": "uint256",
          "name": "amount",
          "type": "uint256"
        }
      ],
      "name": "ERC20PaymentReleased",
      "type": "event"
    },
    {
      "anonymous": false,
      "inputs": [
        {
          "indexed": true,
          "internalType": "address",
          "name": "previousOwner",
          "type": "address"
        },
        {
          "indexed": true,
          "internalType": "address",
          "name": "newOwner",
          "type": "address"
        }
      ],
      "name": "OwnershipTransferred",
      "type": "event"
    },
    {
      "anonymous": false,
      "inputs": [
        {
          "indexed": false,
          "internalType": "address",
          "name": "account",
          "type": "address"
        },
        {
          "indexed": false,
          "internalType": "uint256",
          "name": "shares",
          "type": "uint256"
        }
      ],
      "name": "PayeeAdded",
      "type": "event"
    },
    {
      "anonymous": false,
      "inputs": [
        {
          "indexed": false,
          "internalType": "address",
          "name": "from",
          "type": "address"
        },
        {
          "indexed": false,
          "internalType": "uint256",
          "name": "amount",
          "type": "uint256"
        }
      ],
      "name": "PaymentReceived",
      "type": "event"
    },
    {
      "anonymous": false,
      "inputs": [
        {
          "indexed": false,
          "internalType": "address",
          "name": "to",
          "type": "address"
        },
        {
          "indexed": false,
          "internalType": "uint256",
          "name": "amount",
          "type": "uint256"
        }
      ],
      "name": "PaymentReleased",
      "type": "event"
    },
    {
      "anonymous": false,
      "inputs": [
        {
          "indexed": true,
          "internalType": "address",
          "name": "from",
          "type": "address"
        },
        {
          "indexed": true,
          "internalType": "address",
          "name": "to",
          "type": "address"
        },
        {
          "indexed": true,
          "internalType": "uint256",
          "name": "tokenId",
          "type": "uint256"
        }
      ],
      "name": "Transfer",
      "type": "event"
    },
    {
      "inputs": [
        {
          "internalType": "address",
          "name": "",
          "type": "address"
        }
      ],
      "name": "_presaleClaimed",
      "outputs": [
        {
          "internalType": "uint256",
          "name": "",
          "type": "uint256"
        }
      ],
      "stateMutability": "view",
      "type": "function"
    },
    {
      "inputs": [
        {
          "internalType": "address",
          "name": "to",
          "type": "address"
        },
        {
          "internalType": "uint256",
          "name": "tokenId",
          "type": "uint256"
        }
      ],
      "name": "approve",
      "outputs": [],
      "stateMutability": "nonpayable",
      "type": "function"
    },
    {
      "inputs": [
        {
          "internalType": "address",
          "name": "owner",
          "type": "address"
        }
      ],
      "name": "balanceOf",
      "outputs": [
        {
          "internalType": "uint256",
          "name": "",
          "type": "uint256"
        }
      ],
      "stateMutability": "view",
      "type": "function"
    },
    {
      "inputs": [],
      "name": "baseExtension",
      "outputs": [
        {
          "internalType": "string",
          "name": "",
          "type": "string"
        }
      ],
      "stateMutability": "view",
      "type": "function"
    },
    {
      "inputs": [],
      "name": "baseURI",
      "outputs": [
        {
          "internalType": "string",
          "name": "",
          "type": "string"
        }
      ],
      "stateMutability": "view",
      "type": "function"
    },
    {
      "inputs": [
        {
          "internalType": "uint256",
          "name": "tokenId",
          "type": "uint256"
        }
      ],
      "name": "getApproved",
      "outputs": [
        {
          "internalType": "address",
          "name": "",
          "type": "address"
        }
      ],
      "stateMutability": "view",
      "type": "function"
    },
    {
      "inputs": [
        {
          "internalType": "address",
          "name": "owner",
          "type": "address"
        },
        {
          "internalType": "address",
          "name": "operator",
          "type": "address"
        }
      ],
      "name": "isApprovedForAll",
      "outputs": [
        {
          "internalType": "bool",
          "name": "",
          "type": "bool"
        }
      ],
      "stateMutability": "view",
      "type": "function"
    },
    {
      "inputs": [],
      "name": "maxSupply",
      "outputs": [
        {
          "internalType": "uint256",
          "name": "",
          "type": "uint256"
        }
      ],
      "stateMutability": "view",
      "type": "function"
    },
    {
      "inputs": [],
      "name": "name",
      "outputs": [
        {
          "internalType": "string",
          "name": "",
          "type": "string"
        }
      ],
      "stateMutability": "view",
      "type": "function"
    },
    {
      "inputs": [],
      "name": "notRevealedUri",
      "outputs": [
        {
          "internalType": "string",
          "name": "",
          "type": "string"
        }
      ],
      "stateMutability": "view",
      "type": "function"
    },
    {
      "inputs": [],
      "name": "owner",
      "outputs": [
        {
          "internalType": "address",
          "name": "",
          "type": "address"
        }
      ],
      "stateMutability": "view",
      "type": "function"
    },
    {
      "inputs": [
        {
          "internalType": "uint256",
          "name": "tokenId",
          "type": "uint256"
        }
      ],
      "name": "ownerOf",
      "outputs": [
        {
          "internalType": "address",
          "name": "",
          "type": "address"
        }
      ],
      "stateMutability": "view",
      "type": "function"
    },
    {
      "inputs": [],
      "name": "paused",
      "outputs": [
        {
          "internalType": "bool",
          "name": "",
          "type": "bool"
        }
      ],
      "stateMutability": "view",
      "type": "function"
    },
    {
      "inputs": [
        {
          "internalType": "uint256",
          "name": "index",
          "type": "uint256"
        }
      ],
      "name": "payee",
      "outputs": [
        {
          "internalType": "address",
          "name": "",
          "type": "address"
        }
      ],
      "stateMutability": "view",
      "type": "function"
    },
    {
      "inputs": [],
      "name": "presaleM",
      "outputs": [
        {
          "internalType": "bool",
          "name": "",
          "type": "bool"
        }
      ],
      "stateMutability": "view",
      "type": "function"
    },
    {
      "inputs": [
        {
          "internalType": "address",
          "name": "account",
          "type": "address"
        },
        {
          "internalType": "uint256",
          "name": "_amount",
          "type": "uint256"
        },
        {
          "internalType": "bytes32[]",
          "name": "_proof",
          "type": "bytes32[]"
        }
      ],
      "name": "presaleMint",
      "outputs": [],
      "stateMutability": "payable",
      "type": "function"
    },
    {
      "inputs": [],
      "name": "publicM",
      "outputs": [
        {
          "internalType": "bool",
          "name": "",
          "type": "bool"
        }
      ],
      "stateMutability": "view",
      "type": "function"
    },
    {
      "inputs": [
        {
          "internalType": "uint256",
          "name": "_amount",
          "type": "uint256"
        }
      ],
      "name": "publicSaleMint",
      "outputs": [],
      "stateMutability": "payable",
      "type": "function"
    },
    {
      "inputs": [
        {
          "internalType": "address payable",
          "name": "account",
          "type": "address"
        }
      ],
      "name": "release",
      "outputs": [],
      "stateMutability": "nonpayable",
      "type": "function"
    },
    {
      "inputs": [
        {
          "internalType": "contract IERC20",
          "name": "token",
          "type": "address"
        },
        {
          "internalType": "address",
          "name": "account",
          "type": "address"
        }
      ],
      "name": "release",
      "outputs": [],
      "stateMutability": "nonpayable",
      "type": "function"
    },
    {
      "inputs": [
        {
          "internalType": "contract IERC20",
          "name": "token",
          "type": "address"
        },
        {
          "internalType": "address",
          "name": "account",
          "type": "address"
        }
      ],
      "name": "released",
      "outputs": [
        {
          "internalType": "uint256",
          "name": "",
          "type": "uint256"
        }
      ],
      "stateMutability": "view",
      "type": "function"
    },
    {
      "inputs": [
        {
          "internalType": "address",
          "name": "account",
          "type": "address"
        }
      ],
      "name": "released",
      "outputs": [
        {
          "internalType": "uint256",
          "name": "",
          "type": "uint256"
        }
      ],
      "stateMutability": "view",
      "type": "function"
    },
    {
      "inputs": [],
      "name": "renounceOwnership",
      "outputs": [],
      "stateMutability": "nonpayable",
      "type": "function"
    },
    {
      "inputs": [],
      "name": "reveal",
      "outputs": [],
      "stateMutability": "nonpayable",
      "type": "function"
    },
    {
      "inputs": [],
      "name": "revealed",
      "outputs": [
        {
          "internalType": "bool",
          "name": "",
          "type": "bool"
        }
      ],
      "stateMutability": "view",
      "type": "function"
    },
    {
      "inputs": [],
      "name": "root",
      "outputs": [
        {
          "internalType": "bytes32",
          "name": "",
          "type": "bytes32"
        }
      ],
      "stateMutability": "view",
      "type": "function"
    },
    {
      "inputs": [
        {
          "internalType": "address",
          "name": "from",
          "type": "address"
        },
        {
          "internalType": "address",
          "name": "to",
          "type": "address"
        },
        {
          "internalType": "uint256",
          "name": "tokenId",
          "type": "uint256"
        }
      ],
      "name": "safeTransferFrom",
      "outputs": [],
      "stateMutability": "nonpayable",
      "type": "function"
    },
    {
      "inputs": [
        {
          "internalType": "address",
          "name": "from",
          "type": "address"
        },
        {
          "internalType": "address",
          "name": "to",
          "type": "address"
        },
        {
          "internalType": "uint256",
          "name": "tokenId",
          "type": "uint256"
        },
        {
          "internalType": "bytes",
          "name": "_data",
          "type": "bytes"
        }
      ],
      "name": "safeTransferFrom",
      "outputs": [],
      "stateMutability": "nonpayable",
      "type": "function"
    },
    {
      "inputs": [
        {
          "internalType": "address",
          "name": "operator",
          "type": "address"
        },
        {
          "internalType": "bool",
          "name": "approved",
          "type": "bool"
        }
      ],
      "name": "setApprovalForAll",
      "outputs": [],
      "stateMutability": "nonpayable",
      "type": "function"
    },
    {
      "inputs": [
        {
          "internalType": "string",
          "name": "_newBaseExtension",
          "type": "string"
        }
      ],
      "name": "setBaseExtension",
      "outputs": [],
      "stateMutability": "nonpayable",
      "type": "function"
    },
    {
      "inputs": [
        {
          "internalType": "string",
          "name": "_tokenBaseURI",
          "type": "string"
        }
      ],
      "name": "setBaseURI",
      "outputs": [],
      "stateMutability": "nonpayable",
      "type": "function"
    },
    {
      "inputs": [
        {
          "internalType": "bytes32",
          "name": "merkleroot",
          "type": "bytes32"
        }
      ],
      "name": "setMerkleRoot",
      "outputs": [],
      "stateMutability": "nonpayable",
      "type": "function"
    },
    {
      "inputs": [
        {
          "internalType": "string",
          "name": "_notRevealedURI",
          "type": "string"
        }
      ],
      "name": "setNotRevealedURI",
      "outputs": [],
      "stateMutability": "nonpayable",
      "type": "function"
    },
    {
      "inputs": [
        {
          "internalType": "address",
          "name": "account",
          "type": "address"
        }
      ],
      "name": "shares",
      "outputs": [
        {
          "internalType": "uint256",
          "name": "",
          "type": "uint256"
        }
      ],
      "stateMutability": "view",
      "type": "function"
    },
    {
      "inputs": [
        {
          "internalType": "bytes4",
          "name": "interfaceId",
          "type": "bytes4"
        }
      ],
      "name": "supportsInterface",
      "outputs": [
        {
          "internalType": "bool",
          "name": "",
          "type": "bool"
        }
      ],
      "stateMutability": "view",
      "type": "function"
    },
    {
      "inputs": [],
      "name": "symbol",
      "outputs": [
        {
          "internalType": "string",
          "name": "",
          "type": "string"
        }
      ],
      "stateMutability": "view",
      "type": "function"
    },
    {
      "inputs": [],
      "name": "togglePause",
      "outputs": [],
      "stateMutability": "nonpayable",
      "type": "function"
    },
    {
      "inputs": [],
      "name": "togglePresale",
      "outputs": [],
      "stateMutability": "nonpayable",
      "type": "function"
    },
    {
      "inputs": [],
      "name": "togglePublicSale",
      "outputs": [],
      "stateMutability": "nonpayable",
      "type": "function"
    },
    {
      "inputs": [
        {
          "internalType": "uint256",
          "name": "tokenId",
          "type": "uint256"
        }
      ],
      "name": "tokenURI",
      "outputs": [
        {
          "internalType": "string",
          "name": "",
          "type": "string"
        }
      ],
      "stateMutability": "view",
      "type": "function"
    },
    {
      "inputs": [
        {
          "internalType": "contract IERC20",
          "name": "token",
          "type": "address"
        }
      ],
      "name": "totalReleased",
      "outputs": [
        {
          "internalType": "uint256",
          "name": "",
          "type": "uint256"
        }
      ],
      "stateMutability": "view",
      "type": "function"
    },
    {
      "inputs": [],
      "name": "totalReleased",
      "outputs": [
        {
          "internalType": "uint256",
          "name": "",
          "type": "uint256"
        }
      ],
      "stateMutability": "view",
      "type": "function"
    },
    {
      "inputs": [],
      "name": "totalShares",
      "outputs": [
        {
          "internalType": "uint256",
          "name": "",
          "type": "uint256"
        }
      ],
      "stateMutability": "view",
      "type": "function"
    },
    {
      "inputs": [],
      "name": "totalSupply",
      "outputs": [
        {
          "internalType": "uint256",
          "name": "",
          "type": "uint256"
        }
      ],
      "stateMutability": "view",
      "type": "function"
    },
    {
      "inputs": [
        {
          "internalType": "address",
          "name": "from",
          "type": "address"
        },
        {
          "internalType": "address",
          "name": "to",
          "type": "address"
        },
        {
          "internalType": "uint256",
          "name": "tokenId",
          "type": "uint256"
        }
      ],
      "name": "transferFrom",
      "outputs": [],
      "stateMutability": "nonpayable",
      "type": "function"
    },
    {
      "inputs": [
        {
          "internalType": "address",
          "name": "newOwner",
          "type": "address"
        }
      ],
      "name": "transferOwnership",
      "outputs": [],
      "stateMutability": "nonpayable",
      "type": "function"
    },
    {
      "stateMutability": "payable",
      "type": "receive"
    }
  ],
  "bytecode": "0x60fa60115560e0604052603660808181529062003afb60a03980516200002e9160129160209091019062000674565b5060408051808201909152600580825264173539b7b760d91b60209092019182526200005d9160149162000674565b506015805463ffffffff191663010001001790556005601655600060185567016345785d8a000060195567058d15e176280000601a55670b1a2bc2ec500000601b55604080516020810190915260648152620000be90601d90600162000703565b506040805160208101909152734263d6f7dd08a8f7b85150725349852d401ca3f18152620000f190601e90600162000746565b50348015620000ff57600080fd5b5060405162003b3138038062003b318339810160408190526200012291620007e8565b601e8054806020026020016040519081016040528092919081815260200182805480156200017a57602002820191906000526020600020905b81546001600160a01b031681526001909101906020018083116200015b575b5050505050601d805480602002602001604051908101604052809291908181526020018280548015620001cd57602002820191906000526020600020905b815481526020019060010190808311620001b8575b5050604080518082018252600481526329a82a1960e11b60208083019182528351808501909452600384526214d41560ea1b9084015281519195509193506200021b92506000919062000674565b5080516200023190600190602084019062000674565b5050506200024e62000248620003bb60201b60201c565b620003bf565b60016007558051825114620002c55760405162461bcd60e51b815260206004820152603260248201527f5061796d656e7453706c69747465723a2070617965657320616e6420736861726044820152710cae640d8cadccee8d040dad2e6dac2e8c6d60731b60648201526084015b60405180910390fd5b6000825111620003185760405162461bcd60e51b815260206004820152601a60248201527f5061796d656e7453706c69747465723a206e6f207061796565730000000000006044820152606401620002bc565b60005b825181101562000384576200036f8382815181106200033e576200033e620008e3565b60200260200101518383815181106200035b576200035b620008e3565b60200260200101516200041160201b60201c565b806200037b816200090f565b9150506200031b565b505050600f829055601080546001600160a01b0319166001600160a01b038316179055620003b283620005ff565b50505062000985565b3390565b600680546001600160a01b038381166001600160a01b0319831681179093556040519116919082907f8be0079c531659141344cd1fd0a4f28419497f9722a3daafe3b4186f6b6457e090600090a35050565b6001600160a01b0382166200047e5760405162461bcd60e51b815260206004820152602c60248201527f5061796d656e7453706c69747465723a206163636f756e74206973207468652060448201526b7a65726f206164647265737360a01b6064820152608401620002bc565b60008111620004d05760405162461bcd60e51b815260206004820152601d60248201527f5061796d656e7453706c69747465723a207368617265732061726520300000006044820152606401620002bc565b6001600160a01b0382166000908152600a6020526040902054156200054c5760405162461bcd60e51b815260206004820152602b60248201527f5061796d656e7453706c69747465723a206163636f756e7420616c726561647960448201526a206861732073686172657360a81b6064820152608401620002bc565b600c8054600181019091557fdf6966c971051c3d54ec59162606531493a51404a002842f56009d7e5cf4a8c70180546001600160a01b0319166001600160a01b0384169081179091556000908152600a60205260409020819055600854620005b69082906200092d565b600855604080516001600160a01b0384168152602081018390527f40c340f65e17194d14ddddb073d3c9f888e3cb52b5aae0c6c7706b4fbc905fac910160405180910390a15050565b6006546001600160a01b031633146200065b5760405162461bcd60e51b815260206004820181905260248201527f4f776e61626c653a2063616c6c6572206973206e6f7420746865206f776e65726044820152606401620002bc565b80516200067090601290602084019062000674565b5050565b828054620006829062000948565b90600052602060002090601f016020900481019282620006a65760008555620006f1565b82601f10620006c157805160ff1916838001178555620006f1565b82800160010185558215620006f1579182015b82811115620006f1578251825591602001919060010190620006d4565b50620006ff9291506200079e565b5090565b828054828255906000526020600020908101928215620006f1579160200282015b82811115620006f1578251829060ff1690559160200191906001019062000724565b828054828255906000526020600020908101928215620006f1579160200282015b82811115620006f157825182546001600160a01b0319166001600160a01b0390911617825560209092019160019091019062000767565b5b80821115620006ff57600081556001016200079f565b634e487b7160e01b600052604160045260246000fd5b80516001600160a01b0381168114620007e357600080fd5b919050565b600080600060608486031215620007fe57600080fd5b83516001600160401b03808211156200081657600080fd5b818601915086601f8301126200082b57600080fd5b815181811115620008405762000840620007b5565b604051601f8201601f19908116603f011681019083821181831017156200086b576200086b620007b5565b816040528281526020935089848487010111156200088857600080fd5b600091505b82821015620008ac57848201840151818301850152908301906200088d565b82821115620008be5760008484830101525b8097505050508086015193505050620008da60408501620007cb565b90509250925092565b634e487b7160e01b600052603260045260246000fd5b634e487b7160e01b600052601160045260246000fd5b6000600019821415620009265762000926620008f9565b5060010190565b60008219821115620009435762000943620008f9565b500190565b600181811c908216806200095d57607f821691505b602082108114156200097f57634e487b7160e01b600052602260045260246000fd5b50919050565b61316680620009956000396000f3fe6080604052600436106102815760003560e01c80638cc4de191161014f578063c6682862116100c1578063e222c7f91161007a578063e222c7f9146107e9578063e33b7de3146107fe578063e985e9c514610813578063ebf0c71714610833578063f2c4ce1e14610849578063f2fde38b1461086957600080fd5b8063c668286214610712578063c87b56dd14610727578063ce7c2ac214610747578063d5abeb011461077d578063d79779b214610793578063da3ef23f146107c957600080fd5b8063a22cb46511610113578063a22cb46514610674578063a45063c014610694578063a475b5dd146106b5578063b3ab66b0146106ca578063b88d4fde146106dd578063c4ae3168146106fd57600080fd5b80638cc4de19146105cb5780638da5cb5b146105f8578063954dc3e31461061657806395d89b41146106295780639852595c1461063e57600080fd5b8063406072a9116101f35780636352211e116101ac5780636352211e146105215780636c0360eb1461054157806370a0823114610556578063715018a6146105765780637cb647591461058b5780638b83209b146105ab57600080fd5b8063406072a91461044257806342842e0e1461048857806348b75044146104a857806351830227146104c857806355f804b3146104e75780635c975abb1461050757600080fd5b80631798d58b116102455780631798d58b1461039557806318160ddd146103b557806319165587146103d857806323b872dd146103f857806334393743146104185780633a98ef391461042d57600080fd5b806301ffc9a7146102cf57806306fdde0314610304578063081812fc14610326578063081c8c441461035e578063095ea7b31461037357600080fd5b366102ca577f6ef95f06320e7a25a04a175ca677b7052bdd97131872c2192525a629f51be77033604080516001600160a01b0390921682523460208301520160405180910390a1005b600080fd5b3480156102db57600080fd5b506102ef6102ea3660046128df565b610889565b60405190151581526020015b60405180910390f35b34801561031057600080fd5b506103196108db565b6040516102fb9190612954565b34801561033257600080fd5b50610346610341366004612967565b61096d565b6040516001600160a01b0390911681526020016102fb565b34801561036a57600080fd5b50610319610a07565b34801561037f57600080fd5b5061039361038e366004612995565b610a95565b005b3480156103a157600080fd5b506015546102ef9062010000900460ff1681565b3480156103c157600080fd5b506103ca610bab565b6040519081526020016102fb565b3480156103e457600080fd5b506103936103f33660046129c1565b610bbb565b34801561040457600080fd5b506103936104133660046129de565b610ce9565b34801561042457600080fd5b50610393610d1a565b34801561043957600080fd5b506008546103ca565b34801561044e57600080fd5b506103ca61045d366004612a1f565b6001600160a01b039182166000908152600e6020908152604080832093909416825291909152205490565b34801561049457600080fd5b506103936104a33660046129de565b610d63565b3480156104b457600080fd5b506103936104c3366004612a1f565b610d7e565b3480156104d457600080fd5b506015546102ef90610100900460ff1681565b3480156104f357600080fd5b50610393610502366004612ae4565b610f66565b34801561051357600080fd5b506015546102ef9060ff1681565b34801561052d57600080fd5b5061034661053c366004612967565b610fa7565b34801561054d57600080fd5b5061031961101e565b34801561056257600080fd5b506103ca6105713660046129c1565b61102b565b34801561058257600080fd5b506103936110b2565b34801561059757600080fd5b506103936105a6366004612967565b6110e8565b3480156105b757600080fd5b506103466105c6366004612967565b611117565b3480156105d757600080fd5b506103ca6105e63660046129c1565b60176020526000908152604090205481565b34801561060457600080fd5b506006546001600160a01b0316610346565b610393610624366004612b2d565b611147565b34801561063557600080fd5b50610319611492565b34801561064a57600080fd5b506103ca6106593660046129c1565b6001600160a01b03166000908152600b602052604090205490565b34801561068057600080fd5b5061039361068f366004612bc7565b6114a1565b3480156106a057600080fd5b506015546102ef906301000000900460ff1681565b3480156106c157600080fd5b506103936114ac565b6103936106d8366004612967565b6114e7565b3480156106e957600080fd5b506103936106f8366004612bf5565b611725565b34801561070957600080fd5b5061039361175d565b34801561071e57600080fd5b5061031961179b565b34801561073357600080fd5b50610319610742366004612967565b6117a8565b34801561075357600080fd5b506103ca6107623660046129c1565b6001600160a01b03166000908152600a602052604090205490565b34801561078957600080fd5b506103ca60115481565b34801561079f57600080fd5b506103ca6107ae3660046129c1565b6001600160a01b03166000908152600d602052604090205490565b3480156107d557600080fd5b506103936107e4366004612ae4565b611927565b3480156107f557600080fd5b50610393611964565b34801561080a57600080fd5b506009546103ca565b34801561081f57600080fd5b506102ef61082e366004612a1f565b6119af565b34801561083f57600080fd5b506103ca600f5481565b34801561085557600080fd5b50610393610864366004612ae4565b611a7f565b34801561087557600080fd5b506103936108843660046129c1565b611abc565b60006001600160e01b031982166380ac58cd60e01b14806108ba57506001600160e01b03198216635b5e139f60e01b145b806108d557506301ffc9a760e01b6001600160e01b03198316145b92915050565b6060600080546108ea90612c75565b80601f016020809104026020016040519081016040528092919081815260200182805461091690612c75565b80156109635780601f1061093857610100808354040283529160200191610963565b820191906000526020600020905b81548152906001019060200180831161094657829003601f168201915b5050505050905090565b6000818152600260205260408120546001600160a01b03166109eb5760405162461bcd60e51b815260206004820152602c60248201527f4552433732313a20617070726f76656420717565727920666f72206e6f6e657860448201526b34b9ba32b73a103a37b5b2b760a11b60648201526084015b60405180910390fd5b506000908152600460205260409020546001600160a01b031690565b60138054610a1490612c75565b80601f0160208091040260200160405190810160405280929190818152602001828054610a4090612c75565b8015610a8d5780601f10610a6257610100808354040283529160200191610a8d565b820191906000526020600020905b815481529060010190602001808311610a7057829003601f168201915b505050505081565b6000610aa082610fa7565b9050806001600160a01b0316836001600160a01b03161415610b0e5760405162461bcd60e51b815260206004820152602160248201527f4552433732313a20617070726f76616c20746f2063757272656e74206f776e656044820152603960f91b60648201526084016109e2565b336001600160a01b0382161480610b2a5750610b2a81336119af565b610b9c5760405162461bcd60e51b815260206004820152603860248201527f4552433732313a20617070726f76652063616c6c6572206973206e6f74206f7760448201527f6e6572206e6f7220617070726f76656420666f7220616c6c000000000000000060648201526084016109e2565b610ba68383611b57565b505050565b6000610bb6601c5490565b905090565b6001600160a01b0381166000908152600a6020526040902054610bf05760405162461bcd60e51b81526004016109e290612cb0565b6000610bfb60095490565b610c059047612d0c565b90506000610c328383610c2d866001600160a01b03166000908152600b602052604090205490565b611bc5565b905080610c515760405162461bcd60e51b81526004016109e290612d24565b6001600160a01b0383166000908152600b602052604081208054839290610c79908490612d0c565b925050819055508060096000828254610c929190612d0c565b90915550610ca290508382611c03565b604080516001600160a01b0385168152602081018390527fdf20fd1e76bc69d672e4814fafb2c449bba3a5369d8359adf9e05e6fde87b056910160405180910390a1505050565b610cf33382611d1c565b610d0f5760405162461bcd60e51b81526004016109e290612d6f565b610ba6838383611deb565b6006546001600160a01b03163314610d445760405162461bcd60e51b81526004016109e290612dc0565b6015805462ff0000198116620100009182900460ff1615909102179055565b610ba683838360405180602001604052806000815250611725565b6001600160a01b0381166000908152600a6020526040902054610db35760405162461bcd60e51b81526004016109e290612cb0565b6001600160a01b0382166000908152600d60205260408120546040516370a0823160e01b81523060048201526001600160a01b038516906370a082319060240160206040518083038186803b158015610e0b57600080fd5b505afa158015610e1f573d6000803e3d6000fd5b505050506040513d601f19601f82011682018060405250810190610e439190612df5565b610e4d9190612d0c565b90506000610e868383610c2d87876001600160a01b039182166000908152600e6020908152604080832093909416825291909152205490565b905080610ea55760405162461bcd60e51b81526004016109e290612d24565b6001600160a01b038085166000908152600e6020908152604080832093871683529290529081208054839290610edc908490612d0c565b90915550506001600160a01b0384166000908152600d602052604081208054839290610f09908490612d0c565b90915550610f1a9050848483611f87565b604080516001600160a01b038581168252602082018490528616917f3be5b7a71e84ed12875d241991c70855ac5817d847039e17a9d895c1ceb0f18a910160405180910390a250505050565b6006546001600160a01b03163314610f905760405162461bcd60e51b81526004016109e290612dc0565b8051610fa3906012906020840190612830565b5050565b6000818152600260205260408120546001600160a01b0316806108d55760405162461bcd60e51b815260206004820152602960248201527f4552433732313a206f776e657220717565727920666f72206e6f6e657869737460448201526832b73a103a37b5b2b760b91b60648201526084016109e2565b60128054610a1490612c75565b60006001600160a01b0382166110965760405162461bcd60e51b815260206004820152602a60248201527f4552433732313a2062616c616e636520717565727920666f7220746865207a65604482015269726f206164647265737360b01b60648201526084016109e2565b506001600160a01b031660009081526003602052604090205490565b6006546001600160a01b031633146110dc5760405162461bcd60e51b81526004016109e290612dc0565b6110e66000611fd9565b565b6006546001600160a01b031633146111125760405162461bcd60e51b81526004016109e290612dc0565b600f55565b6000600c828154811061112c5761112c612e0e565b6000918252602090912001546001600160a01b031692915050565b81816111be82828080602002602001604051908101604052809392919081815260200183836020028082843760009201919091525050600f546040516bffffffffffffffffffffffff193360601b16602082015290925060340190506040516020818303038152906040528051906020012061202b565b15156001146111df5760405162461bcd60e51b81526004016109e290612e24565b3332146111fe5760405162461bcd60e51b81526004016109e290612e24565b336001600160a01b038716146112565760405162461bcd60e51b815260206004820152601760248201527f446964656d52616666653a204e6f7420616c6c6f77656400000000000000000060448201526064016109e2565b60155462010000900460ff166112ae5760405162461bcd60e51b815260206004820152601a60248201527f446964656d52616666653a2050726573616c65206973204f464600000000000060448201526064016109e2565b60155460ff16156113015760405162461bcd60e51b815260206004820152601e60248201527f446964656d52616666653a20436f6e747261637420697320706175736564000060448201526064016109e2565b6016548511156113235760405162461bcd60e51b81526004016109e290612e50565b60165433600090815260176020526040902054611341908790612d0c565b111561135f5760405162461bcd60e51b81526004016109e290612e50565b600061136a601c5490565b60115490915061137a8783612d0c565b11156113c85760405162461bcd60e51b815260206004820152601f60248201527f446964656d52616666653a206d617820737570706c792065786365656465640060448201526064016109e2565b34866019546113d79190612e99565b11156113f55760405162461bcd60e51b81526004016109e290612eb8565b3360009081526017602052604081208054889290611414908490612d0c565b90915550506005811161144c5760005b8681101561144657611434612041565b8061143e81612efa565b915050611424565b50611489565b60405162461bcd60e51b815260206004820152601260248201527128393296a9b0b6329026b4b73a1027bb32b960711b60448201526064016109e2565b50505050505050565b6060600180546108ea90612c75565b610fa33383836120c6565b6006546001600160a01b031633146114d65760405162461bcd60e51b81526004016109e290612dc0565b6015805461ff001916610100179055565b3332146115065760405162461bcd60e51b81526004016109e290612e24565b6015546301000000900460ff1661155f5760405162461bcd60e51b815260206004820152601d60248201527f446964656d52616666653a205075626c696353616c65206973204f464600000060448201526064016109e2565b60155460ff16156115b25760405162461bcd60e51b815260206004820152601e60248201527f446964656d52616666653a20436f6e747261637420697320706175736564000060448201526064016109e2565b600081116116025760405162461bcd60e51b815260206004820152601760248201527f446964656d52616666653a207a65726f20616d6f756e7400000000000000000060448201526064016109e2565b600061160d601c5490565b60115490915061161d8383612d0c565b111561166b5760405162461bcd60e51b815260206004820152601f60248201527f446964656d52616666653a204d617820737570706c792065786365656465640060448201526064016109e2565b600581116116a55734826018546116829190612e99565b11156116a05760405162461bcd60e51b81526004016109e290612eb8565b611700565b600a81116116bc5734826019546116829190612e99565b600f81116116d3573482601a546116829190612e99565b3482601b546116e29190612e99565b11156117005760405162461bcd60e51b81526004016109e290612eb8565b60005b82811015610ba657611713612041565b8061171d81612efa565b915050611703565b61172f3383611d1c565b61174b5760405162461bcd60e51b81526004016109e290612d6f565b61175784848484612195565b50505050565b6006546001600160a01b031633146117875760405162461bcd60e51b81526004016109e290612dc0565b6015805460ff19811660ff90911615179055565b60148054610a1490612c75565b6000818152600260205260409020546060906001600160a01b03166118275760405162461bcd60e51b815260206004820152602f60248201527f4552433732314d657461646174613a2055524920717565727920666f72206e6f60448201526e3732bc34b9ba32b73a103a37b5b2b760891b60648201526084016109e2565b601554610100900460ff166118c8576013805461184390612c75565b80601f016020809104026020016040519081016040528092919081815260200182805461186f90612c75565b80156118bc5780601f10611891576101008083540402835291602001916118bc565b820191906000526020600020905b81548152906001019060200180831161189f57829003601f168201915b50505050509050919050565b60006118d26121c8565b905060008151116118f25760405180602001604052806000815250611920565b806118fc846121d7565b601460405160200161191093929190612f15565b6040516020818303038152906040525b9392505050565b6006546001600160a01b031633146119515760405162461bcd60e51b81526004016109e290612dc0565b8051610fa3906014906020840190612830565b6006546001600160a01b0316331461198e5760405162461bcd60e51b81526004016109e290612dc0565b6015805463ff00000019811663010000009182900460ff1615909102179055565b60105460405163c455279160e01b81526001600160a01b03848116600483015260009281169190841690829063c45527919060240160206040518083038186803b1580156119fc57600080fd5b505afa158015611a10573d6000803e3d6000fd5b505050506040513d601f19601f82011682018060405250810190611a349190612fd9565b6001600160a01b03161415611a4d5760019150506108d5565b6001600160a01b0380851660009081526005602090815260408083209387168352929052205460ff165b949350505050565b6006546001600160a01b03163314611aa95760405162461bcd60e51b81526004016109e290612dc0565b8051610fa3906013906020840190612830565b6006546001600160a01b03163314611ae65760405162461bcd60e51b81526004016109e290612dc0565b6001600160a01b038116611b4b5760405162461bcd60e51b815260206004820152602660248201527f4f776e61626c653a206e6577206f776e657220697320746865207a65726f206160448201526564647265737360d01b60648201526084016109e2565b611b5481611fd9565b50565b600081815260046020526040902080546001600160a01b0319166001600160a01b0384169081179091558190611b8c82610fa7565b6001600160a01b03167f8c5be1e5ebec7d5bd14f71427d1e84f3dd0314c0f7b2291e5b200ac8c7c3b92560405160405180910390a45050565b6008546001600160a01b0384166000908152600a602052604081205490918391611bef9086612e99565b611bf9919061300c565b611a779190613020565b80471015611c535760405162461bcd60e51b815260206004820152601d60248201527f416464726573733a20696e73756666696369656e742062616c616e636500000060448201526064016109e2565b6000826001600160a01b03168260405160006040518083038185875af1925050503d8060008114611ca0576040519150601f19603f3d011682016040523d82523d6000602084013e611ca5565b606091505b5050905080610ba65760405162461bcd60e51b815260206004820152603a60248201527f416464726573733a20756e61626c6520746f2073656e642076616c75652c207260448201527f6563697069656e74206d6179206861766520726576657274656400000000000060648201526084016109e2565b6000818152600260205260408120546001600160a01b0316611d955760405162461bcd60e51b815260206004820152602c60248201527f4552433732313a206f70657261746f7220717565727920666f72206e6f6e657860448201526b34b9ba32b73a103a37b5b2b760a11b60648201526084016109e2565b6000611da083610fa7565b9050806001600160a01b0316846001600160a01b03161480611ddb5750836001600160a01b0316611dd08461096d565b6001600160a01b0316145b80611a775750611a7781856119af565b826001600160a01b0316611dfe82610fa7565b6001600160a01b031614611e625760405162461bcd60e51b815260206004820152602560248201527f4552433732313a207472616e736665722066726f6d20696e636f72726563742060448201526437bbb732b960d91b60648201526084016109e2565b6001600160a01b038216611ec45760405162461bcd60e51b8152602060048201526024808201527f4552433732313a207472616e7366657220746f20746865207a65726f206164646044820152637265737360e01b60648201526084016109e2565b611ecf600082611b57565b6001600160a01b0383166000908152600360205260408120805460019290611ef8908490613020565b90915550506001600160a01b0382166000908152600360205260408120805460019290611f26908490612d0c565b909155505060008181526002602052604080822080546001600160a01b0319166001600160a01b0386811691821790925591518493918716917fddf252ad1be2c89b69c2b068fc378daa952ba7f163c4a11628f55a4df523b3ef91a4505050565b604080516001600160a01b038416602482015260448082018490528251808303909101815260649091019091526020810180516001600160e01b031663a9059cbb60e01b179052610ba69084906122d5565b600680546001600160a01b038381166001600160a01b0319831681179093556040519116919082907f8be0079c531659141344cd1fd0a4f28419497f9722a3daafe3b4186f6b6457e090600090a35050565b60008261203885846123a7565b14949350505050565b600260075414156120945760405162461bcd60e51b815260206004820152601f60248201527f5265656e7472616e637947756172643a207265656e7472616e742063616c6c0060448201526064016109e2565b60026007556120a7601c80546001019055565b60006120b2601c5490565b90506120be338261241b565b506001600755565b816001600160a01b0316836001600160a01b031614156121285760405162461bcd60e51b815260206004820152601960248201527f4552433732313a20617070726f766520746f2063616c6c65720000000000000060448201526064016109e2565b6001600160a01b03838116600081815260056020908152604080832094871680845294825291829020805460ff191686151590811790915591519182527f17307eab39ab6107e8899845ad3d59bd9653f200f220920489ca2b5937696c31910160405180910390a3505050565b6121a0848484611deb565b6121ac84848484612435565b6117575760405162461bcd60e51b81526004016109e290613037565b6060601280546108ea90612c75565b6060816121fb5750506040805180820190915260018152600360fc1b602082015290565b8160005b8115612225578061220f81612efa565b915061221e9050600a8361300c565b91506121ff565b60008167ffffffffffffffff81111561224057612240612a58565b6040519080825280601f01601f19166020018201604052801561226a576020820181803683370190505b5090505b8415611a775761227f600183613020565b915061228c600a86613089565b612297906030612d0c565b60f81b8183815181106122ac576122ac612e0e565b60200101906001600160f81b031916908160001a9053506122ce600a8661300c565b945061226e565b600061232a826040518060400160405280602081526020017f5361666545524332303a206c6f772d6c6576656c2063616c6c206661696c6564815250856001600160a01b03166125429092919063ffffffff16565b805190915015610ba65780806020019051810190612348919061309d565b610ba65760405162461bcd60e51b815260206004820152602a60248201527f5361666545524332303a204552433230206f7065726174696f6e20646964206e6044820152691bdd081cdd58d8d9595960b21b60648201526084016109e2565b600081815b84518110156124135760008582815181106123c9576123c9612e0e565b602002602001015190508083116123ef5760008381526020829052604090209250612400565b600081815260208490526040902092505b508061240b81612efa565b9150506123ac565b509392505050565b610fa3828260405180602001604052806000815250612551565b60006001600160a01b0384163b1561253757604051630a85bd0160e11b81526001600160a01b0385169063150b7a02906124799033908990889088906004016130ba565b602060405180830381600087803b15801561249357600080fd5b505af19250505080156124c3575060408051601f3d908101601f191682019092526124c0918101906130f7565b60015b61251d573d8080156124f1576040519150601f19603f3d011682016040523d82523d6000602084013e6124f6565b606091505b5080516125155760405162461bcd60e51b81526004016109e290613037565b805181602001fd5b6001600160e01b031916630a85bd0160e11b149050611a77565b506001949350505050565b6060611a778484600085612584565b61255b83836126b5565b6125686000848484612435565b610ba65760405162461bcd60e51b81526004016109e290613037565b6060824710156125e55760405162461bcd60e51b815260206004820152602660248201527f416464726573733a20696e73756666696369656e742062616c616e636520666f6044820152651c8818d85b1b60d21b60648201526084016109e2565b6001600160a01b0385163b61263c5760405162461bcd60e51b815260206004820152601d60248201527f416464726573733a2063616c6c20746f206e6f6e2d636f6e747261637400000060448201526064016109e2565b600080866001600160a01b031685876040516126589190613114565b60006040518083038185875af1925050503d8060008114612695576040519150601f19603f3d011682016040523d82523d6000602084013e61269a565b606091505b50915091506126aa8282866127f7565b979650505050505050565b6001600160a01b03821661270b5760405162461bcd60e51b815260206004820181905260248201527f4552433732313a206d696e7420746f20746865207a65726f206164647265737360448201526064016109e2565b6000818152600260205260409020546001600160a01b0316156127705760405162461bcd60e51b815260206004820152601c60248201527f4552433732313a20746f6b656e20616c7265616479206d696e7465640000000060448201526064016109e2565b6001600160a01b0382166000908152600360205260408120805460019290612799908490612d0c565b909155505060008181526002602052604080822080546001600160a01b0319166001600160a01b03861690811790915590518392907fddf252ad1be2c89b69c2b068fc378daa952ba7f163c4a11628f55a4df523b3ef908290a45050565b60608315612806575081611920565b8251156128165782518084602001fd5b8160405162461bcd60e51b81526004016109e29190612954565b82805461283c90612c75565b90600052602060002090601f01602090048101928261285e57600085556128a4565b82601f1061287757805160ff19168380011785556128a4565b828001600101855582156128a4579182015b828111156128a4578251825591602001919060010190612889565b506128b09291506128b4565b5090565b5b808211156128b057600081556001016128b5565b6001600160e01b031981168114611b5457600080fd5b6000602082840312156128f157600080fd5b8135611920816128c9565b60005b838110156129175781810151838201526020016128ff565b838111156117575750506000910152565b600081518084526129408160208601602086016128fc565b601f01601f19169290920160200192915050565b6020815260006119206020830184612928565b60006020828403121561297957600080fd5b5035919050565b6001600160a01b0381168114611b5457600080fd5b600080604083850312156129a857600080fd5b82356129b381612980565b946020939093013593505050565b6000602082840312156129d357600080fd5b813561192081612980565b6000806000606084860312156129f357600080fd5b83356129fe81612980565b92506020840135612a0e81612980565b929592945050506040919091013590565b60008060408385031215612a3257600080fd5b8235612a3d81612980565b91506020830135612a4d81612980565b809150509250929050565b634e487b7160e01b600052604160045260246000fd5b600067ffffffffffffffff80841115612a8957612a89612a58565b604051601f8501601f19908116603f01168101908282118183101715612ab157612ab1612a58565b81604052809350858152868686011115612aca57600080fd5b858560208301376000602087830101525050509392505050565b600060208284031215612af657600080fd5b813567ffffffffffffffff811115612b0d57600080fd5b8201601f81018413612b1e57600080fd5b611a7784823560208401612a6e565b60008060008060608587031215612b4357600080fd5b8435612b4e81612980565b935060208501359250604085013567ffffffffffffffff80821115612b7257600080fd5b818701915087601f830112612b8657600080fd5b813581811115612b9557600080fd5b8860208260051b8501011115612baa57600080fd5b95989497505060200194505050565b8015158114611b5457600080fd5b60008060408385031215612bda57600080fd5b8235612be581612980565b91506020830135612a4d81612bb9565b60008060008060808587031215612c0b57600080fd5b8435612c1681612980565b93506020850135612c2681612980565b925060408501359150606085013567ffffffffffffffff811115612c4957600080fd5b8501601f81018713612c5a57600080fd5b612c6987823560208401612a6e565b91505092959194509250565b600181811c90821680612c8957607f821691505b60208210811415612caa57634e487b7160e01b600052602260045260246000fd5b50919050565b60208082526026908201527f5061796d656e7453706c69747465723a206163636f756e7420686173206e6f2060408201526573686172657360d01b606082015260800190565b634e487b7160e01b600052601160045260246000fd5b60008219821115612d1f57612d1f612cf6565b500190565b6020808252602b908201527f5061796d656e7453706c69747465723a206163636f756e74206973206e6f742060408201526a191d59481c185e5b595b9d60aa1b606082015260800190565b60208082526031908201527f4552433732313a207472616e736665722063616c6c6572206973206e6f74206f6040820152701ddb995c881b9bdc88185c1c1c9bdd9959607a1b606082015260800190565b6020808252818101527f4f776e61626c653a2063616c6c6572206973206e6f7420746865206f776e6572604082015260600190565b600060208284031215612e0757600080fd5b5051919050565b634e487b7160e01b600052603260045260246000fd5b6020808252601290820152712737ba1030b63637bbb2b21037b934b3b4b760711b604082015260600190565b60208082526029908201527f446964656d52616666653a20596f752063616e2774206d696e7420736f206d75604082015268636820746f6b656e7360b81b606082015260800190565b6000816000190483118215151615612eb357612eb3612cf6565b500290565b60208082526022908201527f446964656d52616666653a204e6f7420656e6f756768206574686572732073656040820152611b9d60f21b606082015260800190565b6000600019821415612f0e57612f0e612cf6565b5060010190565b600084516020612f288285838a016128fc565b855191840191612f3b8184848a016128fc565b8554920191600090600181811c9080831680612f5857607f831692505b858310811415612f7657634e487b7160e01b85526022600452602485fd5b808015612f8a5760018114612f9b57612fc8565b60ff19851688528388019550612fc8565b60008b81526020902060005b85811015612fc05781548a820152908401908801612fa7565b505083880195505b50939b9a5050505050505050505050565b600060208284031215612feb57600080fd5b815161192081612980565b634e487b7160e01b600052601260045260246000fd5b60008261301b5761301b612ff6565b500490565b60008282101561303257613032612cf6565b500390565b60208082526032908201527f4552433732313a207472616e7366657220746f206e6f6e20455243373231526560408201527131b2b4bb32b91034b6b83632b6b2b73a32b960711b606082015260800190565b60008261309857613098612ff6565b500690565b6000602082840312156130af57600080fd5b815161192081612bb9565b6001600160a01b03858116825284166020820152604081018390526080606082018190526000906130ed90830184612928565b9695505050505050565b60006020828403121561310957600080fd5b8151611920816128c9565b600082516131268184602087016128fc565b919091019291505056fea264697066735822122057db837f1ae50d16ed2a2393c3efcdda33d058bc89d91e26dae572c7c28f072764736f6c63430008090033697066733a2f2f516d63354175365856756e4b486753447a317637756f70786f42646871705a566f69373553386357546e6e7451312f",
  "linkReferences": {},
  "deployedLinkReferences": {}
}