{
  "_format": "hh-sol-artifact-1",
  "contractName": "PeaceEagle",
  "sourceName": "contracts/PeaceEagle.sol",
  "abi": [
    {
      "inputs": [
        {
          "internalType": "string",
          "name": "uri",
          "type": "string"
        },
        {
          "internalType": "bytes32",
          "name": "merkleroot",
          "type": "bytes32"
        },
        {
          "internalType": "address",
          "name": "_proxyRegistryAddress",
          "type": "address"
        }
      ],
      "stateMutability": "nonpayable",
      "type": "constructor"
    },
    {
      "anonymous": false,
      "inputs": [
        {
          "indexed": true,
          "internalType": "address",
          "name": "owner",
          "type": "address"
        },
        {
          "indexed": true,
          "internalType": "address",
          "name": "approved",
          "type": "address"
        },
        {
          "indexed": true,
          "internalType": "uint256",
          "name": "tokenId",
          "type": "uint256"
        }
      ],
      "name": "Approval",
      "type": "event"
    },
    {
      "anonymous": false,
      "inputs": [
        {
          "indexed": true,
          "internalType": "address",
          "name": "owner",
          "type": "address"
        },
        {
          "indexed": true,
          "internalType": "address",
          "name": "operator",
          "type": "address"
        },
        {
          "indexed": false,
          "internalType": "bool",
          "name": "approved",
          "type": "bool"
        }
      ],
      "name": "ApprovalForAll",
      "type": "event"
    },
    {
      "anonymous": false,
      "inputs": [
        {
          "indexed": true,
          "internalType": "contract IERC20",
          "name": "token",
          "type": "address"
        },
        {
          "indexed": false,
          "internalType": "address",
          "name": "to",
          "type": "address"
        },
        {
          "indexed": false,
          "internalType": "uint256",
          "name": "amount",
          "type": "uint256"
        }
      ],
      "name": "ERC20PaymentReleased",
      "type": "event"
    },
    {
      "anonymous": false,
      "inputs": [
        {
          "indexed": true,
          "internalType": "address",
          "name": "previousOwner",
          "type": "address"
        },
        {
          "indexed": true,
          "internalType": "address",
          "name": "newOwner",
          "type": "address"
        }
      ],
      "name": "OwnershipTransferred",
      "type": "event"
    },
    {
      "anonymous": false,
      "inputs": [
        {
          "indexed": false,
          "internalType": "address",
          "name": "account",
          "type": "address"
        },
        {
          "indexed": false,
          "internalType": "uint256",
          "name": "shares",
          "type": "uint256"
        }
      ],
      "name": "PayeeAdded",
      "type": "event"
    },
    {
      "anonymous": false,
      "inputs": [
        {
          "indexed": false,
          "internalType": "address",
          "name": "from",
          "type": "address"
        },
        {
          "indexed": false,
          "internalType": "uint256",
          "name": "amount",
          "type": "uint256"
        }
      ],
      "name": "PaymentReceived",
      "type": "event"
    },
    {
      "anonymous": false,
      "inputs": [
        {
          "indexed": false,
          "internalType": "address",
          "name": "to",
          "type": "address"
        },
        {
          "indexed": false,
          "internalType": "uint256",
          "name": "amount",
          "type": "uint256"
        }
      ],
      "name": "PaymentReleased",
      "type": "event"
    },
    {
      "anonymous": false,
      "inputs": [
        {
          "indexed": true,
          "internalType": "address",
          "name": "from",
          "type": "address"
        },
        {
          "indexed": true,
          "internalType": "address",
          "name": "to",
          "type": "address"
        },
        {
          "indexed": true,
          "internalType": "uint256",
          "name": "tokenId",
          "type": "uint256"
        }
      ],
      "name": "Transfer",
      "type": "event"
    },
    {
      "inputs": [
        {
          "internalType": "address",
          "name": "",
          "type": "address"
        }
      ],
      "name": "_presaleClaimed",
      "outputs": [
        {
          "internalType": "uint256",
          "name": "",
          "type": "uint256"
        }
      ],
      "stateMutability": "view",
      "type": "function"
    },
    {
      "inputs": [
        {
          "internalType": "address",
          "name": "to",
          "type": "address"
        },
        {
          "internalType": "uint256",
          "name": "tokenId",
          "type": "uint256"
        }
      ],
      "name": "approve",
      "outputs": [],
      "stateMutability": "nonpayable",
      "type": "function"
    },
    {
      "inputs": [
        {
          "internalType": "address",
          "name": "owner",
          "type": "address"
        }
      ],
      "name": "balanceOf",
      "outputs": [
        {
          "internalType": "uint256",
          "name": "",
          "type": "uint256"
        }
      ],
      "stateMutability": "view",
      "type": "function"
    },
    {
      "inputs": [],
      "name": "baseExtension",
      "outputs": [
        {
          "internalType": "string",
          "name": "",
          "type": "string"
        }
      ],
      "stateMutability": "view",
      "type": "function"
    },
    {
      "inputs": [],
      "name": "baseURI",
      "outputs": [
        {
          "internalType": "string",
          "name": "",
          "type": "string"
        }
      ],
      "stateMutability": "view",
      "type": "function"
    },
    {
      "inputs": [
        {
          "internalType": "uint256",
          "name": "tokenId",
          "type": "uint256"
        }
      ],
      "name": "getApproved",
      "outputs": [
        {
          "internalType": "address",
          "name": "",
          "type": "address"
        }
      ],
      "stateMutability": "view",
      "type": "function"
    },
    {
      "inputs": [
        {
          "internalType": "address",
          "name": "owner",
          "type": "address"
        },
        {
          "internalType": "address",
          "name": "operator",
          "type": "address"
        }
      ],
      "name": "isApprovedForAll",
      "outputs": [
        {
          "internalType": "bool",
          "name": "",
          "type": "bool"
        }
      ],
      "stateMutability": "view",
      "type": "function"
    },
    {
      "inputs": [],
      "name": "maxSupply",
      "outputs": [
        {
          "internalType": "uint256",
          "name": "",
          "type": "uint256"
        }
      ],
      "stateMutability": "view",
      "type": "function"
    },
    {
      "inputs": [],
      "name": "name",
      "outputs": [
        {
          "internalType": "string",
          "name": "",
          "type": "string"
        }
      ],
      "stateMutability": "view",
      "type": "function"
    },
    {
      "inputs": [],
      "name": "notRevealedUri",
      "outputs": [
        {
          "internalType": "string",
          "name": "",
          "type": "string"
        }
      ],
      "stateMutability": "view",
      "type": "function"
    },
    {
      "inputs": [],
      "name": "owner",
      "outputs": [
        {
          "internalType": "address",
          "name": "",
          "type": "address"
        }
      ],
      "stateMutability": "view",
      "type": "function"
    },
    {
      "inputs": [
        {
          "internalType": "uint256",
          "name": "tokenId",
          "type": "uint256"
        }
      ],
      "name": "ownerOf",
      "outputs": [
        {
          "internalType": "address",
          "name": "",
          "type": "address"
        }
      ],
      "stateMutability": "view",
      "type": "function"
    },
    {
      "inputs": [],
      "name": "paused",
      "outputs": [
        {
          "internalType": "bool",
          "name": "",
          "type": "bool"
        }
      ],
      "stateMutability": "view",
      "type": "function"
    },
    {
      "inputs": [
        {
          "internalType": "uint256",
          "name": "index",
          "type": "uint256"
        }
      ],
      "name": "payee",
      "outputs": [
        {
          "internalType": "address",
          "name": "",
          "type": "address"
        }
      ],
      "stateMutability": "view",
      "type": "function"
    },
    {
      "inputs": [],
      "name": "presaleM",
      "outputs": [
        {
          "internalType": "bool",
          "name": "",
          "type": "bool"
        }
      ],
      "stateMutability": "view",
      "type": "function"
    },
    {
      "inputs": [
        {
          "internalType": "address",
          "name": "account",
          "type": "address"
        },
        {
          "internalType": "uint256",
          "name": "_amount",
          "type": "uint256"
        },
        {
          "internalType": "bytes32[]",
          "name": "_proof",
          "type": "bytes32[]"
        }
      ],
      "name": "presaleMint",
      "outputs": [],
      "stateMutability": "payable",
      "type": "function"
    },
    {
      "inputs": [],
      "name": "publicM",
      "outputs": [
        {
          "internalType": "bool",
          "name": "",
          "type": "bool"
        }
      ],
      "stateMutability": "view",
      "type": "function"
    },
    {
      "inputs": [
        {
          "internalType": "uint256",
          "name": "_amount",
          "type": "uint256"
        }
      ],
      "name": "publicSaleMint",
      "outputs": [],
      "stateMutability": "payable",
      "type": "function"
    },
    {
      "inputs": [
        {
          "internalType": "address payable",
          "name": "account",
          "type": "address"
        }
      ],
      "name": "release",
      "outputs": [],
      "stateMutability": "nonpayable",
      "type": "function"
    },
    {
      "inputs": [
        {
          "internalType": "contract IERC20",
          "name": "token",
          "type": "address"
        },
        {
          "internalType": "address",
          "name": "account",
          "type": "address"
        }
      ],
      "name": "release",
      "outputs": [],
      "stateMutability": "nonpayable",
      "type": "function"
    },
    {
      "inputs": [
        {
          "internalType": "contract IERC20",
          "name": "token",
          "type": "address"
        },
        {
          "internalType": "address",
          "name": "account",
          "type": "address"
        }
      ],
      "name": "released",
      "outputs": [
        {
          "internalType": "uint256",
          "name": "",
          "type": "uint256"
        }
      ],
      "stateMutability": "view",
      "type": "function"
    },
    {
      "inputs": [
        {
          "internalType": "address",
          "name": "account",
          "type": "address"
        }
      ],
      "name": "released",
      "outputs": [
        {
          "internalType": "uint256",
          "name": "",
          "type": "uint256"
        }
      ],
      "stateMutability": "view",
      "type": "function"
    },
    {
      "inputs": [],
      "name": "renounceOwnership",
      "outputs": [],
      "stateMutability": "nonpayable",
      "type": "function"
    },
    {
      "inputs": [],
      "name": "reveal",
      "outputs": [],
      "stateMutability": "nonpayable",
      "type": "function"
    },
    {
      "inputs": [],
      "name": "revealed",
      "outputs": [
        {
          "internalType": "bool",
          "name": "",
          "type": "bool"
        }
      ],
      "stateMutability": "view",
      "type": "function"
    },
    {
      "inputs": [],
      "name": "root",
      "outputs": [
        {
          "internalType": "bytes32",
          "name": "",
          "type": "bytes32"
        }
      ],
      "stateMutability": "view",
      "type": "function"
    },
    {
      "inputs": [
        {
          "internalType": "address",
          "name": "from",
          "type": "address"
        },
        {
          "internalType": "address",
          "name": "to",
          "type": "address"
        },
        {
          "internalType": "uint256",
          "name": "tokenId",
          "type": "uint256"
        }
      ],
      "name": "safeTransferFrom",
      "outputs": [],
      "stateMutability": "nonpayable",
      "type": "function"
    },
    {
      "inputs": [
        {
          "internalType": "address",
          "name": "from",
          "type": "address"
        },
        {
          "internalType": "address",
          "name": "to",
          "type": "address"
        },
        {
          "internalType": "uint256",
          "name": "tokenId",
          "type": "uint256"
        },
        {
          "internalType": "bytes",
          "name": "_data",
          "type": "bytes"
        }
      ],
      "name": "safeTransferFrom",
      "outputs": [],
      "stateMutability": "nonpayable",
      "type": "function"
    },
    {
      "inputs": [
        {
          "internalType": "address",
          "name": "operator",
          "type": "address"
        },
        {
          "internalType": "bool",
          "name": "approved",
          "type": "bool"
        }
      ],
      "name": "setApprovalForAll",
      "outputs": [],
      "stateMutability": "nonpayable",
      "type": "function"
    },
    {
      "inputs": [
        {
          "internalType": "string",
          "name": "_newBaseExtension",
          "type": "string"
        }
      ],
      "name": "setBaseExtension",
      "outputs": [],
      "stateMutability": "nonpayable",
      "type": "function"
    },
    {
      "inputs": [
        {
          "internalType": "string",
          "name": "_tokenBaseURI",
          "type": "string"
        }
      ],
      "name": "setBaseURI",
      "outputs": [],
      "stateMutability": "nonpayable",
      "type": "function"
    },
    {
      "inputs": [
        {
          "internalType": "bytes32",
          "name": "merkleroot",
          "type": "bytes32"
        }
      ],
      "name": "setMerkleRoot",
      "outputs": [],
      "stateMutability": "nonpayable",
      "type": "function"
    },
    {
      "inputs": [
        {
          "internalType": "string",
          "name": "_notRevealedURI",
          "type": "string"
        }
      ],
      "name": "setNotRevealedURI",
      "outputs": [],
      "stateMutability": "nonpayable",
      "type": "function"
    },
    {
      "inputs": [
        {
          "internalType": "address",
          "name": "account",
          "type": "address"
        }
      ],
      "name": "shares",
      "outputs": [
        {
          "internalType": "uint256",
          "name": "",
          "type": "uint256"
        }
      ],
      "stateMutability": "view",
      "type": "function"
    },
    {
      "inputs": [
        {
          "internalType": "bytes4",
          "name": "interfaceId",
          "type": "bytes4"
        }
      ],
      "name": "supportsInterface",
      "outputs": [
        {
          "internalType": "bool",
          "name": "",
          "type": "bool"
        }
      ],
      "stateMutability": "view",
      "type": "function"
    },
    {
      "inputs": [],
      "name": "symbol",
      "outputs": [
        {
          "internalType": "string",
          "name": "",
          "type": "string"
        }
      ],
      "stateMutability": "view",
      "type": "function"
    },
    {
      "inputs": [],
      "name": "togglePause",
      "outputs": [],
      "stateMutability": "nonpayable",
      "type": "function"
    },
    {
      "inputs": [],
      "name": "togglePresale",
      "outputs": [],
      "stateMutability": "nonpayable",
      "type": "function"
    },
    {
      "inputs": [],
      "name": "togglePublicSale",
      "outputs": [],
      "stateMutability": "nonpayable",
      "type": "function"
    },
    {
      "inputs": [
        {
          "internalType": "uint256",
          "name": "tokenId",
          "type": "uint256"
        }
      ],
      "name": "tokenURI",
      "outputs": [
        {
          "internalType": "string",
          "name": "",
          "type": "string"
        }
      ],
      "stateMutability": "view",
      "type": "function"
    },
    {
      "inputs": [
        {
          "internalType": "contract IERC20",
          "name": "token",
          "type": "address"
        }
      ],
      "name": "totalReleased",
      "outputs": [
        {
          "internalType": "uint256",
          "name": "",
          "type": "uint256"
        }
      ],
      "stateMutability": "view",
      "type": "function"
    },
    {
      "inputs": [],
      "name": "totalReleased",
      "outputs": [
        {
          "internalType": "uint256",
          "name": "",
          "type": "uint256"
        }
      ],
      "stateMutability": "view",
      "type": "function"
    },
    {
      "inputs": [],
      "name": "totalShares",
      "outputs": [
        {
          "internalType": "uint256",
          "name": "",
          "type": "uint256"
        }
      ],
      "stateMutability": "view",
      "type": "function"
    },
    {
      "inputs": [],
      "name": "totalSupply",
      "outputs": [
        {
          "internalType": "uint256",
          "name": "",
          "type": "uint256"
        }
      ],
      "stateMutability": "view",
      "type": "function"
    },
    {
      "inputs": [
        {
          "internalType": "address",
          "name": "from",
          "type": "address"
        },
        {
          "internalType": "address",
          "name": "to",
          "type": "address"
        },
        {
          "internalType": "uint256",
          "name": "tokenId",
          "type": "uint256"
        }
      ],
      "name": "transferFrom",
      "outputs": [],
      "stateMutability": "nonpayable",
      "type": "function"
    },
    {
      "inputs": [
        {
          "internalType": "address",
          "name": "newOwner",
          "type": "address"
        }
      ],
      "name": "transferOwnership",
      "outputs": [],
      "stateMutability": "nonpayable",
      "type": "function"
    },
    {
      "stateMutability": "payable",
      "type": "receive"
    }
  ],
  "bytecode": "0x610ce460115560e0604052603660808181529062003ade60a03980516200002f916012916020909101906200066d565b5060408051808201909152600580825264173539b7b760d91b60209092019182526200005e916014916200066d565b506015805463ffffffff191663010001001790556005601655600060185566f8b0a10e47000060195567010a741a46278000601a55604080516020810190915260648152620000b290601c906001620006fc565b50604080516020810190915273a17095633f6a9243c56fa700ca2f6d278e23c3bd8152620000e590601d9060016200073f565b50348015620000f357600080fd5b5060405162003b1438038062003b148339810160408190526200011691620007e1565b601d8054806020026020016040519081016040528092919081815260200182805480156200016e57602002820191906000526020600020905b81546001600160a01b031681526001909101906020018083116200014f575b5050505050601c805480602002602001604051908101604052809291908181526020018280548015620001c157602002820191906000526020600020905b815481526020019060010190808311620001ac575b5050604080518082018252600a81526950656163654561676c6560b01b602080830191825283518085019094526002845261504560f01b908401528151919550919350620002149250600091906200066d565b5080516200022a9060019060208401906200066d565b5050506200024762000241620003b460201b60201c565b620003b8565b60016007558051825114620002be5760405162461bcd60e51b815260206004820152603260248201527f5061796d656e7453706c69747465723a2070617965657320616e6420736861726044820152710cae640d8cadccee8d040dad2e6dac2e8c6d60731b60648201526084015b60405180910390fd5b6000825111620003115760405162461bcd60e51b815260206004820152601a60248201527f5061796d656e7453706c69747465723a206e6f207061796565730000000000006044820152606401620002b5565b60005b82518110156200037d5762000368838281518110620003375762000337620008dc565b6020026020010151838381518110620003545762000354620008dc565b60200260200101516200040a60201b60201c565b80620003748162000908565b91505062000314565b505050600f829055601080546001600160a01b0319166001600160a01b038316179055620003ab83620005f8565b5050506200097e565b3390565b600680546001600160a01b038381166001600160a01b0319831681179093556040519116919082907f8be0079c531659141344cd1fd0a4f28419497f9722a3daafe3b4186f6b6457e090600090a35050565b6001600160a01b038216620004775760405162461bcd60e51b815260206004820152602c60248201527f5061796d656e7453706c69747465723a206163636f756e74206973207468652060448201526b7a65726f206164647265737360a01b6064820152608401620002b5565b60008111620004c95760405162461bcd60e51b815260206004820152601d60248201527f5061796d656e7453706c69747465723a207368617265732061726520300000006044820152606401620002b5565b6001600160a01b0382166000908152600a602052604090205415620005455760405162461bcd60e51b815260206004820152602b60248201527f5061796d656e7453706c69747465723a206163636f756e7420616c726561647960448201526a206861732073686172657360a81b6064820152608401620002b5565b600c8054600181019091557fdf6966c971051c3d54ec59162606531493a51404a002842f56009d7e5cf4a8c70180546001600160a01b0319166001600160a01b0384169081179091556000908152600a60205260409020819055600854620005af90829062000926565b600855604080516001600160a01b0384168152602081018390527f40c340f65e17194d14ddddb073d3c9f888e3cb52b5aae0c6c7706b4fbc905fac910160405180910390a15050565b6006546001600160a01b03163314620006545760405162461bcd60e51b815260206004820181905260248201527f4f776e61626c653a2063616c6c6572206973206e6f7420746865206f776e65726044820152606401620002b5565b8051620006699060129060208401906200066d565b5050565b8280546200067b9062000941565b90600052602060002090601f0160209004810192826200069f5760008555620006ea565b82601f10620006ba57805160ff1916838001178555620006ea565b82800160010185558215620006ea579182015b82811115620006ea578251825591602001919060010190620006cd565b50620006f892915062000797565b5090565b828054828255906000526020600020908101928215620006ea579160200282015b82811115620006ea578251829060ff169055916020019190600101906200071d565b828054828255906000526020600020908101928215620006ea579160200282015b82811115620006ea57825182546001600160a01b0319166001600160a01b0390911617825560209092019160019091019062000760565b5b80821115620006f8576000815560010162000798565b634e487b7160e01b600052604160045260246000fd5b80516001600160a01b0381168114620007dc57600080fd5b919050565b600080600060608486031215620007f757600080fd5b83516001600160401b03808211156200080f57600080fd5b818601915086601f8301126200082457600080fd5b815181811115620008395762000839620007ae565b604051601f8201601f19908116603f01168101908382118183101715620008645762000864620007ae565b816040528281526020935089848487010111156200088157600080fd5b600091505b82821015620008a5578482018401518183018501529083019062000886565b82821115620008b75760008484830101525b8097505050508086015193505050620008d360408501620007c4565b90509250925092565b634e487b7160e01b600052603260045260246000fd5b634e487b7160e01b600052601160045260246000fd5b60006000198214156200091f576200091f620008f2565b5060010190565b600082198211156200093c576200093c620008f2565b500190565b600181811c908216806200095657607f821691505b602082108114156200097857634e487b7160e01b600052602260045260246000fd5b50919050565b613150806200098e6000396000f3fe6080604052600436106102815760003560e01c80638cc4de191161014f578063c6682862116100c1578063e222c7f91161007a578063e222c7f9146107e9578063e33b7de3146107fe578063e985e9c514610813578063ebf0c71714610833578063f2c4ce1e14610849578063f2fde38b1461086957600080fd5b8063c668286214610712578063c87b56dd14610727578063ce7c2ac214610747578063d5abeb011461077d578063d79779b214610793578063da3ef23f146107c957600080fd5b8063a22cb46511610113578063a22cb46514610674578063a45063c014610694578063a475b5dd146106b5578063b3ab66b0146106ca578063b88d4fde146106dd578063c4ae3168146106fd57600080fd5b80638cc4de19146105cb5780638da5cb5b146105f8578063954dc3e31461061657806395d89b41146106295780639852595c1461063e57600080fd5b8063406072a9116101f35780636352211e116101ac5780636352211e146105215780636c0360eb1461054157806370a0823114610556578063715018a6146105765780637cb647591461058b5780638b83209b146105ab57600080fd5b8063406072a91461044257806342842e0e1461048857806348b75044146104a857806351830227146104c857806355f804b3146104e75780635c975abb1461050757600080fd5b80631798d58b116102455780631798d58b1461039557806318160ddd146103b557806319165587146103d857806323b872dd146103f857806334393743146104185780633a98ef391461042d57600080fd5b806301ffc9a7146102cf57806306fdde0314610304578063081812fc14610326578063081c8c441461035e578063095ea7b31461037357600080fd5b366102ca577f6ef95f06320e7a25a04a175ca677b7052bdd97131872c2192525a629f51be77033604080516001600160a01b0390921682523460208301520160405180910390a1005b600080fd5b3480156102db57600080fd5b506102ef6102ea3660046128c9565b610889565b60405190151581526020015b60405180910390f35b34801561031057600080fd5b506103196108db565b6040516102fb919061293e565b34801561033257600080fd5b50610346610341366004612951565b61096d565b6040516001600160a01b0390911681526020016102fb565b34801561036a57600080fd5b50610319610a07565b34801561037f57600080fd5b5061039361038e36600461297f565b610a95565b005b3480156103a157600080fd5b506015546102ef9062010000900460ff1681565b3480156103c157600080fd5b506103ca610bab565b6040519081526020016102fb565b3480156103e457600080fd5b506103936103f33660046129ab565b610bbb565b34801561040457600080fd5b506103936104133660046129c8565b610ce9565b34801561042457600080fd5b50610393610d1a565b34801561043957600080fd5b506008546103ca565b34801561044e57600080fd5b506103ca61045d366004612a09565b6001600160a01b039182166000908152600e6020908152604080832093909416825291909152205490565b34801561049457600080fd5b506103936104a33660046129c8565b610d63565b3480156104b457600080fd5b506103936104c3366004612a09565b610d7e565b3480156104d457600080fd5b506015546102ef90610100900460ff1681565b3480156104f357600080fd5b50610393610502366004612ace565b610f66565b34801561051357600080fd5b506015546102ef9060ff1681565b34801561052d57600080fd5b5061034661053c366004612951565b610fa7565b34801561054d57600080fd5b5061031961101e565b34801561056257600080fd5b506103ca6105713660046129ab565b61102b565b34801561058257600080fd5b506103936110b2565b34801561059757600080fd5b506103936105a6366004612951565b6110e8565b3480156105b757600080fd5b506103466105c6366004612951565b611117565b3480156105d757600080fd5b506103ca6105e63660046129ab565b60176020526000908152604090205481565b34801561060457600080fd5b506006546001600160a01b0316610346565b610393610624366004612b17565b611147565b34801561063557600080fd5b50610319611492565b34801561064a57600080fd5b506103ca6106593660046129ab565b6001600160a01b03166000908152600b602052604090205490565b34801561068057600080fd5b5061039361068f366004612bb1565b6114a1565b3480156106a057600080fd5b506015546102ef906301000000900460ff1681565b3480156106c157600080fd5b506103936114ac565b6103936106d8366004612951565b6114e7565b3480156106e957600080fd5b506103936106f8366004612bdf565b61170f565b34801561070957600080fd5b50610393611747565b34801561071e57600080fd5b50610319611785565b34801561073357600080fd5b50610319610742366004612951565b611792565b34801561075357600080fd5b506103ca6107623660046129ab565b6001600160a01b03166000908152600a602052604090205490565b34801561078957600080fd5b506103ca60115481565b34801561079f57600080fd5b506103ca6107ae3660046129ab565b6001600160a01b03166000908152600d602052604090205490565b3480156107d557600080fd5b506103936107e4366004612ace565b611911565b3480156107f557600080fd5b5061039361194e565b34801561080a57600080fd5b506009546103ca565b34801561081f57600080fd5b506102ef61082e366004612a09565b611999565b34801561083f57600080fd5b506103ca600f5481565b34801561085557600080fd5b50610393610864366004612ace565b611a69565b34801561087557600080fd5b506103936108843660046129ab565b611aa6565b60006001600160e01b031982166380ac58cd60e01b14806108ba57506001600160e01b03198216635b5e139f60e01b145b806108d557506301ffc9a760e01b6001600160e01b03198316145b92915050565b6060600080546108ea90612c5f565b80601f016020809104026020016040519081016040528092919081815260200182805461091690612c5f565b80156109635780601f1061093857610100808354040283529160200191610963565b820191906000526020600020905b81548152906001019060200180831161094657829003601f168201915b5050505050905090565b6000818152600260205260408120546001600160a01b03166109eb5760405162461bcd60e51b815260206004820152602c60248201527f4552433732313a20617070726f76656420717565727920666f72206e6f6e657860448201526b34b9ba32b73a103a37b5b2b760a11b60648201526084015b60405180910390fd5b506000908152600460205260409020546001600160a01b031690565b60138054610a1490612c5f565b80601f0160208091040260200160405190810160405280929190818152602001828054610a4090612c5f565b8015610a8d5780601f10610a6257610100808354040283529160200191610a8d565b820191906000526020600020905b815481529060010190602001808311610a7057829003601f168201915b505050505081565b6000610aa082610fa7565b9050806001600160a01b0316836001600160a01b03161415610b0e5760405162461bcd60e51b815260206004820152602160248201527f4552433732313a20617070726f76616c20746f2063757272656e74206f776e656044820152603960f91b60648201526084016109e2565b336001600160a01b0382161480610b2a5750610b2a8133611999565b610b9c5760405162461bcd60e51b815260206004820152603860248201527f4552433732313a20617070726f76652063616c6c6572206973206e6f74206f7760448201527f6e6572206e6f7220617070726f76656420666f7220616c6c000000000000000060648201526084016109e2565b610ba68383611b41565b505050565b6000610bb6601b5490565b905090565b6001600160a01b0381166000908152600a6020526040902054610bf05760405162461bcd60e51b81526004016109e290612c9a565b6000610bfb60095490565b610c059047612cf6565b90506000610c328383610c2d866001600160a01b03166000908152600b602052604090205490565b611baf565b905080610c515760405162461bcd60e51b81526004016109e290612d0e565b6001600160a01b0383166000908152600b602052604081208054839290610c79908490612cf6565b925050819055508060096000828254610c929190612cf6565b90915550610ca290508382611bed565b604080516001600160a01b0385168152602081018390527fdf20fd1e76bc69d672e4814fafb2c449bba3a5369d8359adf9e05e6fde87b056910160405180910390a1505050565b610cf33382611d06565b610d0f5760405162461bcd60e51b81526004016109e290612d59565b610ba6838383611dd5565b6006546001600160a01b03163314610d445760405162461bcd60e51b81526004016109e290612daa565b6015805462ff0000198116620100009182900460ff1615909102179055565b610ba68383836040518060200160405280600081525061170f565b6001600160a01b0381166000908152600a6020526040902054610db35760405162461bcd60e51b81526004016109e290612c9a565b6001600160a01b0382166000908152600d60205260408120546040516370a0823160e01b81523060048201526001600160a01b038516906370a082319060240160206040518083038186803b158015610e0b57600080fd5b505afa158015610e1f573d6000803e3d6000fd5b505050506040513d601f19601f82011682018060405250810190610e439190612ddf565b610e4d9190612cf6565b90506000610e868383610c2d87876001600160a01b039182166000908152600e6020908152604080832093909416825291909152205490565b905080610ea55760405162461bcd60e51b81526004016109e290612d0e565b6001600160a01b038085166000908152600e6020908152604080832093871683529290529081208054839290610edc908490612cf6565b90915550506001600160a01b0384166000908152600d602052604081208054839290610f09908490612cf6565b90915550610f1a9050848483611f71565b604080516001600160a01b038581168252602082018490528616917f3be5b7a71e84ed12875d241991c70855ac5817d847039e17a9d895c1ceb0f18a910160405180910390a250505050565b6006546001600160a01b03163314610f905760405162461bcd60e51b81526004016109e290612daa565b8051610fa390601290602084019061281a565b5050565b6000818152600260205260408120546001600160a01b0316806108d55760405162461bcd60e51b815260206004820152602960248201527f4552433732313a206f776e657220717565727920666f72206e6f6e657869737460448201526832b73a103a37b5b2b760b91b60648201526084016109e2565b60128054610a1490612c5f565b60006001600160a01b0382166110965760405162461bcd60e51b815260206004820152602a60248201527f4552433732313a2062616c616e636520717565727920666f7220746865207a65604482015269726f206164647265737360b01b60648201526084016109e2565b506001600160a01b031660009081526003602052604090205490565b6006546001600160a01b031633146110dc5760405162461bcd60e51b81526004016109e290612daa565b6110e66000611fc3565b565b6006546001600160a01b031633146111125760405162461bcd60e51b81526004016109e290612daa565b600f55565b6000600c828154811061112c5761112c612df8565b6000918252602090912001546001600160a01b031692915050565b81816111be82828080602002602001604051908101604052809392919081815260200183836020028082843760009201919091525050600f546040516bffffffffffffffffffffffff193360601b166020820152909250603401905060405160208183030381529060405280519060200120612015565b15156001146111df5760405162461bcd60e51b81526004016109e290612e0e565b3332146111fe5760405162461bcd60e51b81526004016109e290612e0e565b336001600160a01b038716146112565760405162461bcd60e51b815260206004820152601760248201527f446964656d52616666653a204e6f7420616c6c6f77656400000000000000000060448201526064016109e2565b60155462010000900460ff166112ae5760405162461bcd60e51b815260206004820152601a60248201527f446964656d52616666653a2050726573616c65206973204f464600000000000060448201526064016109e2565b60155460ff16156113015760405162461bcd60e51b815260206004820152601e60248201527f446964656d52616666653a20436f6e747261637420697320706175736564000060448201526064016109e2565b6016548511156113235760405162461bcd60e51b81526004016109e290612e3a565b60165433600090815260176020526040902054611341908790612cf6565b111561135f5760405162461bcd60e51b81526004016109e290612e3a565b600061136a601b5490565b60115490915061137a8783612cf6565b11156113c85760405162461bcd60e51b815260206004820152601f60248201527f446964656d52616666653a206d617820737570706c792065786365656465640060448201526064016109e2565b34866019546113d79190612e83565b11156113f55760405162461bcd60e51b81526004016109e290612ea2565b3360009081526017602052604081208054889290611414908490612cf6565b90915550506005811161144c5760005b868110156114465761143461202b565b8061143e81612ee4565b915050611424565b50611489565b60405162461bcd60e51b815260206004820152601260248201527128393296a9b0b6329026b4b73a1027bb32b960711b60448201526064016109e2565b50505050505050565b6060600180546108ea90612c5f565b610fa33383836120b0565b6006546001600160a01b031633146114d65760405162461bcd60e51b81526004016109e290612daa565b6015805461ff001916610100179055565b3332146115065760405162461bcd60e51b81526004016109e290612e0e565b6015546301000000900460ff1661155f5760405162461bcd60e51b815260206004820152601d60248201527f446964656d52616666653a205075626c696353616c65206973204f464600000060448201526064016109e2565b60155460ff16156115b25760405162461bcd60e51b815260206004820152601e60248201527f446964656d52616666653a20436f6e747261637420697320706175736564000060448201526064016109e2565b600081116116025760405162461bcd60e51b815260206004820152601760248201527f446964656d52616666653a207a65726f20616d6f756e7400000000000000000060448201526064016109e2565b600061160d601b5490565b60115490915061161d8383612cf6565b111561166b5760405162461bcd60e51b815260206004820152601f60248201527f446964656d52616666653a204d617820737570706c792065786365656465640060448201526064016109e2565b60f981116116a55734826018546116829190612e83565b11156116a05760405162461bcd60e51b81526004016109e290612ea2565b6116ea565b6101f381116116bd5734826019546116829190612e83565b3482601a546116cc9190612e83565b11156116ea5760405162461bcd60e51b81526004016109e290612ea2565b60005b82811015610ba6576116fd61202b565b8061170781612ee4565b9150506116ed565b6117193383611d06565b6117355760405162461bcd60e51b81526004016109e290612d59565b6117418484848461217f565b50505050565b6006546001600160a01b031633146117715760405162461bcd60e51b81526004016109e290612daa565b6015805460ff19811660ff90911615179055565b60148054610a1490612c5f565b6000818152600260205260409020546060906001600160a01b03166118115760405162461bcd60e51b815260206004820152602f60248201527f4552433732314d657461646174613a2055524920717565727920666f72206e6f60448201526e3732bc34b9ba32b73a103a37b5b2b760891b60648201526084016109e2565b601554610100900460ff166118b2576013805461182d90612c5f565b80601f016020809104026020016040519081016040528092919081815260200182805461185990612c5f565b80156118a65780601f1061187b576101008083540402835291602001916118a6565b820191906000526020600020905b81548152906001019060200180831161188957829003601f168201915b50505050509050919050565b60006118bc6121b2565b905060008151116118dc576040518060200160405280600081525061190a565b806118e6846121c1565b60146040516020016118fa93929190612eff565b6040516020818303038152906040525b9392505050565b6006546001600160a01b0316331461193b5760405162461bcd60e51b81526004016109e290612daa565b8051610fa390601490602084019061281a565b6006546001600160a01b031633146119785760405162461bcd60e51b81526004016109e290612daa565b6015805463ff00000019811663010000009182900460ff1615909102179055565b60105460405163c455279160e01b81526001600160a01b03848116600483015260009281169190841690829063c45527919060240160206040518083038186803b1580156119e657600080fd5b505afa1580156119fa573d6000803e3d6000fd5b505050506040513d601f19601f82011682018060405250810190611a1e9190612fc3565b6001600160a01b03161415611a375760019150506108d5565b6001600160a01b0380851660009081526005602090815260408083209387168352929052205460ff165b949350505050565b6006546001600160a01b03163314611a935760405162461bcd60e51b81526004016109e290612daa565b8051610fa390601390602084019061281a565b6006546001600160a01b03163314611ad05760405162461bcd60e51b81526004016109e290612daa565b6001600160a01b038116611b355760405162461bcd60e51b815260206004820152602660248201527f4f776e61626c653a206e6577206f776e657220697320746865207a65726f206160448201526564647265737360d01b60648201526084016109e2565b611b3e81611fc3565b50565b600081815260046020526040902080546001600160a01b0319166001600160a01b0384169081179091558190611b7682610fa7565b6001600160a01b03167f8c5be1e5ebec7d5bd14f71427d1e84f3dd0314c0f7b2291e5b200ac8c7c3b92560405160405180910390a45050565b6008546001600160a01b0384166000908152600a602052604081205490918391611bd99086612e83565b611be39190612ff6565b611a61919061300a565b80471015611c3d5760405162461bcd60e51b815260206004820152601d60248201527f416464726573733a20696e73756666696369656e742062616c616e636500000060448201526064016109e2565b6000826001600160a01b03168260405160006040518083038185875af1925050503d8060008114611c8a576040519150601f19603f3d011682016040523d82523d6000602084013e611c8f565b606091505b5050905080610ba65760405162461bcd60e51b815260206004820152603a60248201527f416464726573733a20756e61626c6520746f2073656e642076616c75652c207260448201527f6563697069656e74206d6179206861766520726576657274656400000000000060648201526084016109e2565b6000818152600260205260408120546001600160a01b0316611d7f5760405162461bcd60e51b815260206004820152602c60248201527f4552433732313a206f70657261746f7220717565727920666f72206e6f6e657860448201526b34b9ba32b73a103a37b5b2b760a11b60648201526084016109e2565b6000611d8a83610fa7565b9050806001600160a01b0316846001600160a01b03161480611dc55750836001600160a01b0316611dba8461096d565b6001600160a01b0316145b80611a615750611a618185611999565b826001600160a01b0316611de882610fa7565b6001600160a01b031614611e4c5760405162461bcd60e51b815260206004820152602560248201527f4552433732313a207472616e736665722066726f6d20696e636f72726563742060448201526437bbb732b960d91b60648201526084016109e2565b6001600160a01b038216611eae5760405162461bcd60e51b8152602060048201526024808201527f4552433732313a207472616e7366657220746f20746865207a65726f206164646044820152637265737360e01b60648201526084016109e2565b611eb9600082611b41565b6001600160a01b0383166000908152600360205260408120805460019290611ee290849061300a565b90915550506001600160a01b0382166000908152600360205260408120805460019290611f10908490612cf6565b909155505060008181526002602052604080822080546001600160a01b0319166001600160a01b0386811691821790925591518493918716917fddf252ad1be2c89b69c2b068fc378daa952ba7f163c4a11628f55a4df523b3ef91a4505050565b604080516001600160a01b038416602482015260448082018490528251808303909101815260649091019091526020810180516001600160e01b031663a9059cbb60e01b179052610ba69084906122bf565b600680546001600160a01b038381166001600160a01b0319831681179093556040519116919082907f8be0079c531659141344cd1fd0a4f28419497f9722a3daafe3b4186f6b6457e090600090a35050565b6000826120228584612391565b14949350505050565b6002600754141561207e5760405162461bcd60e51b815260206004820152601f60248201527f5265656e7472616e637947756172643a207265656e7472616e742063616c6c0060448201526064016109e2565b6002600755612091601b80546001019055565b600061209c601b5490565b90506120a83382612405565b506001600755565b816001600160a01b0316836001600160a01b031614156121125760405162461bcd60e51b815260206004820152601960248201527f4552433732313a20617070726f766520746f2063616c6c65720000000000000060448201526064016109e2565b6001600160a01b03838116600081815260056020908152604080832094871680845294825291829020805460ff191686151590811790915591519182527f17307eab39ab6107e8899845ad3d59bd9653f200f220920489ca2b5937696c31910160405180910390a3505050565b61218a848484611dd5565b6121968484848461241f565b6117415760405162461bcd60e51b81526004016109e290613021565b6060601280546108ea90612c5f565b6060816121e55750506040805180820190915260018152600360fc1b602082015290565b8160005b811561220f57806121f981612ee4565b91506122089050600a83612ff6565b91506121e9565b60008167ffffffffffffffff81111561222a5761222a612a42565b6040519080825280601f01601f191660200182016040528015612254576020820181803683370190505b5090505b8415611a615761226960018361300a565b9150612276600a86613073565b612281906030612cf6565b60f81b81838151811061229657612296612df8565b60200101906001600160f81b031916908160001a9053506122b8600a86612ff6565b9450612258565b6000612314826040518060400160405280602081526020017f5361666545524332303a206c6f772d6c6576656c2063616c6c206661696c6564815250856001600160a01b031661252c9092919063ffffffff16565b805190915015610ba657808060200190518101906123329190613087565b610ba65760405162461bcd60e51b815260206004820152602a60248201527f5361666545524332303a204552433230206f7065726174696f6e20646964206e6044820152691bdd081cdd58d8d9595960b21b60648201526084016109e2565b600081815b84518110156123fd5760008582815181106123b3576123b3612df8565b602002602001015190508083116123d957600083815260208290526040902092506123ea565b600081815260208490526040902092505b50806123f581612ee4565b915050612396565b509392505050565b610fa382826040518060200160405280600081525061253b565b60006001600160a01b0384163b1561252157604051630a85bd0160e11b81526001600160a01b0385169063150b7a02906124639033908990889088906004016130a4565b602060405180830381600087803b15801561247d57600080fd5b505af19250505080156124ad575060408051601f3d908101601f191682019092526124aa918101906130e1565b60015b612507573d8080156124db576040519150601f19603f3d011682016040523d82523d6000602084013e6124e0565b606091505b5080516124ff5760405162461bcd60e51b81526004016109e290613021565b805181602001fd5b6001600160e01b031916630a85bd0160e11b149050611a61565b506001949350505050565b6060611a61848460008561256e565b612545838361269f565b612552600084848461241f565b610ba65760405162461bcd60e51b81526004016109e290613021565b6060824710156125cf5760405162461bcd60e51b815260206004820152602660248201527f416464726573733a20696e73756666696369656e742062616c616e636520666f6044820152651c8818d85b1b60d21b60648201526084016109e2565b6001600160a01b0385163b6126265760405162461bcd60e51b815260206004820152601d60248201527f416464726573733a2063616c6c20746f206e6f6e2d636f6e747261637400000060448201526064016109e2565b600080866001600160a01b0316858760405161264291906130fe565b60006040518083038185875af1925050503d806000811461267f576040519150601f19603f3d011682016040523d82523d6000602084013e612684565b606091505b50915091506126948282866127e1565b979650505050505050565b6001600160a01b0382166126f55760405162461bcd60e51b815260206004820181905260248201527f4552433732313a206d696e7420746f20746865207a65726f206164647265737360448201526064016109e2565b6000818152600260205260409020546001600160a01b03161561275a5760405162461bcd60e51b815260206004820152601c60248201527f4552433732313a20746f6b656e20616c7265616479206d696e7465640000000060448201526064016109e2565b6001600160a01b0382166000908152600360205260408120805460019290612783908490612cf6565b909155505060008181526002602052604080822080546001600160a01b0319166001600160a01b03861690811790915590518392907fddf252ad1be2c89b69c2b068fc378daa952ba7f163c4a11628f55a4df523b3ef908290a45050565b606083156127f057508161190a565b8251156128005782518084602001fd5b8160405162461bcd60e51b81526004016109e2919061293e565b82805461282690612c5f565b90600052602060002090601f016020900481019282612848576000855561288e565b82601f1061286157805160ff191683800117855561288e565b8280016001018555821561288e579182015b8281111561288e578251825591602001919060010190612873565b5061289a92915061289e565b5090565b5b8082111561289a576000815560010161289f565b6001600160e01b031981168114611b3e57600080fd5b6000602082840312156128db57600080fd5b813561190a816128b3565b60005b838110156129015781810151838201526020016128e9565b838111156117415750506000910152565b6000815180845261292a8160208601602086016128e6565b601f01601f19169290920160200192915050565b60208152600061190a6020830184612912565b60006020828403121561296357600080fd5b5035919050565b6001600160a01b0381168114611b3e57600080fd5b6000806040838503121561299257600080fd5b823561299d8161296a565b946020939093013593505050565b6000602082840312156129bd57600080fd5b813561190a8161296a565b6000806000606084860312156129dd57600080fd5b83356129e88161296a565b925060208401356129f88161296a565b929592945050506040919091013590565b60008060408385031215612a1c57600080fd5b8235612a278161296a565b91506020830135612a378161296a565b809150509250929050565b634e487b7160e01b600052604160045260246000fd5b600067ffffffffffffffff80841115612a7357612a73612a42565b604051601f8501601f19908116603f01168101908282118183101715612a9b57612a9b612a42565b81604052809350858152868686011115612ab457600080fd5b858560208301376000602087830101525050509392505050565b600060208284031215612ae057600080fd5b813567ffffffffffffffff811115612af757600080fd5b8201601f81018413612b0857600080fd5b611a6184823560208401612a58565b60008060008060608587031215612b2d57600080fd5b8435612b388161296a565b935060208501359250604085013567ffffffffffffffff80821115612b5c57600080fd5b818701915087601f830112612b7057600080fd5b813581811115612b7f57600080fd5b8860208260051b8501011115612b9457600080fd5b95989497505060200194505050565b8015158114611b3e57600080fd5b60008060408385031215612bc457600080fd5b8235612bcf8161296a565b91506020830135612a3781612ba3565b60008060008060808587031215612bf557600080fd5b8435612c008161296a565b93506020850135612c108161296a565b925060408501359150606085013567ffffffffffffffff811115612c3357600080fd5b8501601f81018713612c4457600080fd5b612c5387823560208401612a58565b91505092959194509250565b600181811c90821680612c7357607f821691505b60208210811415612c9457634e487b7160e01b600052602260045260246000fd5b50919050565b60208082526026908201527f5061796d656e7453706c69747465723a206163636f756e7420686173206e6f2060408201526573686172657360d01b606082015260800190565b634e487b7160e01b600052601160045260246000fd5b60008219821115612d0957612d09612ce0565b500190565b6020808252602b908201527f5061796d656e7453706c69747465723a206163636f756e74206973206e6f742060408201526a191d59481c185e5b595b9d60aa1b606082015260800190565b60208082526031908201527f4552433732313a207472616e736665722063616c6c6572206973206e6f74206f6040820152701ddb995c881b9bdc88185c1c1c9bdd9959607a1b606082015260800190565b6020808252818101527f4f776e61626c653a2063616c6c6572206973206e6f7420746865206f776e6572604082015260600190565b600060208284031215612df157600080fd5b5051919050565b634e487b7160e01b600052603260045260246000fd5b6020808252601290820152712737ba1030b63637bbb2b21037b934b3b4b760711b604082015260600190565b60208082526029908201527f446964656d52616666653a20596f752063616e2774206d696e7420736f206d75604082015268636820746f6b656e7360b81b606082015260800190565b6000816000190483118215151615612e9d57612e9d612ce0565b500290565b60208082526022908201527f446964656d52616666653a204e6f7420656e6f756768206574686572732073656040820152611b9d60f21b606082015260800190565b6000600019821415612ef857612ef8612ce0565b5060010190565b600084516020612f128285838a016128e6565b855191840191612f258184848a016128e6565b8554920191600090600181811c9080831680612f4257607f831692505b858310811415612f6057634e487b7160e01b85526022600452602485fd5b808015612f745760018114612f8557612fb2565b60ff19851688528388019550612fb2565b60008b81526020902060005b85811015612faa5781548a820152908401908801612f91565b505083880195505b50939b9a5050505050505050505050565b600060208284031215612fd557600080fd5b815161190a8161296a565b634e487b7160e01b600052601260045260246000fd5b60008261300557613005612fe0565b500490565b60008282101561301c5761301c612ce0565b500390565b60208082526032908201527f4552433732313a207472616e7366657220746f206e6f6e20455243373231526560408201527131b2b4bb32b91034b6b83632b6b2b73a32b960711b606082015260800190565b60008261308257613082612fe0565b500690565b60006020828403121561309957600080fd5b815161190a81612ba3565b6001600160a01b03858116825284166020820152604081018390526080606082018190526000906130d790830184612912565b9695505050505050565b6000602082840312156130f357600080fd5b815161190a816128b3565b600082516131108184602087016128e6565b919091019291505056fea26469706673582212201e8788578dd5c36a2c2991ea22b501634e088ac602c6a7f464cd169ef0ceb1d664736f6c63430008090033697066733a2f2f516d624e4872597a663675547756313142566335776472754c6376784578485a6471534554484c41574850366f552f",
  "linkReferences": {},
  "deployedLinkReferences": {}
}